{
  "contractName": "AcountManagement",
  "abi": [
    {
      "constant": true,
      "inputs": [
        {
          "internalType": "string",
          "name": "",
          "type": "string"
        }
      ],
      "name": "acountExist",
      "outputs": [
        {
          "internalType": "bool",
          "name": "",
          "type": "bool"
        }
      ],
      "payable": false,
      "stateMutability": "view",
      "type": "function"
    },
    {
      "constant": true,
      "inputs": [
        {
          "internalType": "string",
          "name": "",
          "type": "string"
        }
      ],
      "name": "acountsList",
      "outputs": [
        {
          "internalType": "address",
          "name": "owner",
          "type": "address"
        },
        {
          "internalType": "string",
          "name": "password",
          "type": "string"
        },
        {
          "internalType": "enum AcountManagement.JobType",
          "name": "job",
          "type": "uint8"
        }
      ],
      "payable": false,
      "stateMutability": "view",
      "type": "function"
    },
    {
      "constant": false,
      "inputs": [
        {
          "internalType": "string",
          "name": "_userName",
          "type": "string"
        },
        {
          "internalType": "string",
          "name": "_password",
          "type": "string"
        },
        {
          "internalType": "enum AcountManagement.JobType",
          "name": "_job",
          "type": "uint8"
        }
      ],
      "name": "createAcount",
      "outputs": [],
      "payable": false,
      "stateMutability": "nonpayable",
      "type": "function"
    },
    {
      "constant": true,
      "inputs": [
        {
          "internalType": "string",
          "name": "_userName",
          "type": "string"
        },
        {
          "internalType": "string",
          "name": "_password",
          "type": "string"
        }
      ],
      "name": "login",
      "outputs": [
        {
          "internalType": "bool",
          "name": "",
          "type": "bool"
        }
      ],
      "payable": false,
      "stateMutability": "view",
      "type": "function"
    }
  ],
  "bytecode": "0x608060405234801561001057600080fd5b50610bc0806100206000396000f3fe608060405234801561001057600080fd5b506004361061004c5760003560e01c8063249ab676146100515780633cc6fbfd146101cd57806358467dbc146102a0578063fba4c6a214610386575b600080fd5b61010a6004803603602081101561006757600080fd5b810190808035906020019064010000000081111561008457600080fd5b82018360208201111561009657600080fd5b803590602001918460018302840111640100000000831117156100b857600080fd5b91908080601f016020809104026020016040519081016040528093929190818152602001838380828437600081840152601f19601f8201169050808301925050505050505091929192905050506104e5565b604051808473ffffffffffffffffffffffffffffffffffffffff1673ffffffffffffffffffffffffffffffffffffffff1681526020018060200183600381111561015057fe5b60ff168152602001828103825284818151815260200191508051906020019080838360005b83811015610190578082015181840152602081019050610175565b50505050905090810190601f1680156101bd5780820380516001836020036101000a031916815260200191505b5094505050505060405180910390f35b610286600480360360208110156101e357600080fd5b810190808035906020019064010000000081111561020057600080fd5b82018360208201111561021257600080fd5b8035906020019184600183028401116401000000008311171561023457600080fd5b91908080601f016020809104026020016040519081016040528093929190818152602001838380828437600081840152601f19601f8201169050808301925050505050505091929192905050506105ea565b604051808215151515815260200191505060405180910390f35b61036c600480360360408110156102b657600080fd5b81019080803590602001906401000000008111156102d357600080fd5b8201836020820111156102e557600080fd5b8035906020019184600183028401116401000000008311171561030757600080fd5b90919293919293908035906020019064010000000081111561032857600080fd5b82018360208201111561033a57600080fd5b8035906020019184600183028401116401000000008311171561035c57600080fd5b9091929391929390505050610620565b604051808215151515815260200191505060405180910390f35b6104e36004803603606081101561039c57600080fd5b81019080803590602001906401000000008111156103b957600080fd5b8201836020820111156103cb57600080fd5b803590602001918460018302840111640100000000831117156103ed57600080fd5b91908080601f016020809104026020016040519081016040528093929190818152602001838380828437600081840152601f19601f8201169050808301925050505050505091929192908035906020019064010000000081111561045057600080fd5b82018360208201111561046257600080fd5b8035906020019184600183028401116401000000008311171561048457600080fd5b91908080601f016020809104026020016040519081016040528093929190818152602001838380828437600081840152601f19601f820116905080830192505050505050509192919290803560ff16906020019092919050505061083b565b005b6000818051602081018201805184825260208301602085012081835280955050505050506000915090508060000160009054906101000a900473ffffffffffffffffffffffffffffffffffffffff1690806001018054600181600116156101000203166002900480601f0160208091040260200160405190810160405280929190818152602001828054600181600116156101000203166002900480156105cd5780601f106105a2576101008083540402835291602001916105cd565b820191906000526020600020905b8154815290600101906020018083116105b057829003601f168201915b5050505050908060020160009054906101000a900460ff16905083565b6001818051602081018201805184825260208301602085012081835280955050505050506000915054906101000a900460ff1681565b600080151560018686604051808383808284378083019250505092505050908152602001604051809103902060009054906101000a900460ff161515141561066b5760009050610833565b82826040516020018083838082843780830192505050925050506040516020818303038152906040528051906020012060008686604051808383808284378083019250505092505050908152602001604051809103902060010160405160200180828054600181600116156101000203166002900480156107235780601f10610701576101008083540402835291820191610723565b820191906000526020600020905b81548152906001019060200180831161070f575b5050915050604051602081830303815290604052805190602001201461074c5760009050610833565b82826040516020018083838082843780830192505050925050506040516020818303038152906040528051906020012060008686604051808383808284378083019250505092505050908152602001604051809103902060010160405160200180828054600181600116156101000203166002900480156108045780601f106107e2576101008083540402835291820191610804565b820191906000526020600020905b8154815290600101906020018083116107f0575b505091505060405160208183030381529060405280519060200120141561082e5760019050610833565b600090505b949350505050565b600015156001846040518082805190602001908083835b602083106108755780518252602082019150602081019050602083039250610852565b6001836020036101000a038019825116818451168082178552505050505050905001915050908152602001604051809103902060009054906101000a900460ff1615151461092b576040517f08c379a000000000000000000000000000000000000000000000000000000000815260040180806020018281038252600f8152602001807f6368616e676520757365726e616d65000000000000000000000000000000000081525060200191505060405180910390fd5b600180846040518082805190602001908083835b60208310610962578051825260208201915060208101905060208303925061093f565b6001836020036101000a038019825116818451168082178552505050505050905001915050908152602001604051809103902060006101000a81548160ff02191690831515021790555060405180606001604052803373ffffffffffffffffffffffffffffffffffffffff1681526020018381526020018260038111156109e557fe5b8152506000846040518082805190602001908083835b60208310610a1e57805182526020820191506020810190506020830392506109fb565b6001836020036101000a038019825116818451168082178552505050505050905001915050908152602001604051809103902060008201518160000160006101000a81548173ffffffffffffffffffffffffffffffffffffffff021916908373ffffffffffffffffffffffffffffffffffffffff1602179055506020820151816001019080519060200190610ab4929190610ae6565b5060408201518160020160006101000a81548160ff02191690836003811115610ad957fe5b0217905550905050505050565b828054600181600116156101000203166002900490600052602060002090601f016020900481019282601f10610b2757805160ff1916838001178555610b55565b82800160010185558215610b55579182015b82811115610b54578251825591602001919060010190610b39565b5b509050610b629190610b66565b5090565b610b8891905b80821115610b84576000816000905550600101610b6c565b5090565b9056fea265627a7a72315820ad8babfc082947215dc4669e7ba6029de2774ac7dd0bda866404525bf53da47c64736f6c63430005100032",
  "source": "// SPDX-License-Identifier: MIT\npragma solidity >=0.4.22 <0.9.0;\ncontract AcountManagement {\nenum JobType {\nfarmer,\nwholesaler,\nretailer,\ncustomer\n\n}\n\nstruct Acount {\naddress owner;\nstring password;\nJobType job;\n}\n\nmapping (string => Acount) public acountsList;\nmapping (string => bool) public acountExist;\n\n\nfunction createAcount (string memory _userName,string memory _password,JobType _job) public {\n    require(acountExist[_userName  ]== false,'change username');\n    acountExist[_userName]= true;\n    acountsList[_userName]= Acount({owner:msg.sender,password:_password,job:_job});  \n}\nfunction login (string calldata _userName,string calldata _password) external view returns (bool) {\nif (acountExist[_userName]== false) {\n    return false;\n}\n\n if (keccak256(abi.encodePacked(acountsList[_userName].password)) != keccak256(abi.encodePacked(_password))) {\n    return false;\n}\nif (keccak256(abi.encodePacked(acountsList[_userName].password)) == keccak256(abi.encodePacked(_password))) {\n    return true;\n}\nreturn false;\n}\n\n}",
  "sourcePath": "/home/mrbnf/Documents/myapp/SupplyChain/supplychain/contracts/AcountManagement.sol",
  "compiler": {
    "name": "solc",
    "version": "0.5.16+commit.9c3226ce.Emscripten.clang"
  },
  "schemaVersion": "3.4.7",
  "updatedAt": "2022-07-02T22:34:33.124Z",
  "networkType": "ethereum",
  "devdoc": {
    "methods": {}
  },
  "userdoc": {
    "methods": {}
  }
}