{
  "contractName": "SupplyChain",
  "abi": [
    {
      "anonymous": false,
      "inputs": [
        {
          "indexed": true,
          "internalType": "address",
          "name": "owner",
          "type": "address"
        },
        {
          "indexed": false,
          "internalType": "uint256",
          "name": "productId",
          "type": "uint256"
        }
      ],
      "name": "ProductAdded",
      "type": "event"
    },
    {
      "anonymous": false,
      "inputs": [
        {
          "indexed": true,
          "internalType": "address",
          "name": "owner",
          "type": "address"
        },
        {
          "indexed": true,
          "internalType": "address",
          "name": "receiver",
          "type": "address"
        },
        {
          "indexed": false,
          "internalType": "uint256",
          "name": "productId",
          "type": "uint256"
        }
      ],
      "name": "ProductBuyed",
      "type": "event"
    },
    {
      "anonymous": false,
      "inputs": [
        {
          "indexed": true,
          "internalType": "uint256",
          "name": "productId",
          "type": "uint256"
        },
        {
          "indexed": false,
          "internalType": "string",
          "name": "location",
          "type": "string"
        }
      ],
      "name": "ProductLocation",
      "type": "event"
    },
    {
      "constant": true,
      "inputs": [],
      "name": "finalID",
      "outputs": [
        {
          "internalType": "uint256",
          "name": "",
          "type": "uint256"
        }
      ],
      "payable": false,
      "stateMutability": "view",
      "type": "function"
    },
    {
      "constant": true,
      "inputs": [
        {
          "internalType": "uint256",
          "name": "",
          "type": "uint256"
        }
      ],
      "name": "productTypes",
      "outputs": [
        {
          "internalType": "string",
          "name": "",
          "type": "string"
        }
      ],
      "payable": false,
      "stateMutability": "view",
      "type": "function"
    },
    {
      "constant": true,
      "inputs": [
        {
          "internalType": "uint256",
          "name": "",
          "type": "uint256"
        }
      ],
      "name": "productsData",
      "outputs": [
        {
          "internalType": "address",
          "name": "owner",
          "type": "address"
        },
        {
          "internalType": "uint256",
          "name": "parent",
          "type": "uint256"
        },
        {
          "internalType": "uint256",
          "name": "productType",
          "type": "uint256"
        },
        {
          "internalType": "uint256",
          "name": "amount",
          "type": "uint256"
        },
        {
          "internalType": "uint256",
          "name": "amountRemaining",
          "type": "uint256"
        },
        {
          "internalType": "bool",
          "name": "isForSale",
          "type": "bool"
        },
        {
          "internalType": "uint256",
          "name": "price",
          "type": "uint256"
        },
        {
          "internalType": "uint256",
          "name": "minQuantity",
          "type": "uint256"
        },
        {
          "internalType": "uint256",
          "name": "date",
          "type": "uint256"
        }
      ],
      "payable": false,
      "stateMutability": "view",
      "type": "function"
    },
    {
      "constant": true,
      "inputs": [
        {
          "internalType": "address",
          "name": "",
          "type": "address"
        }
      ],
      "name": "usersJobType",
      "outputs": [
        {
          "internalType": "string",
          "name": "",
          "type": "string"
        }
      ],
      "payable": false,
      "stateMutability": "view",
      "type": "function"
    },
    {
      "constant": true,
      "inputs": [
        {
          "internalType": "string",
          "name": "str",
          "type": "string"
        }
      ],
      "name": "getHash",
      "outputs": [
        {
          "internalType": "bytes32",
          "name": "",
          "type": "bytes32"
        }
      ],
      "payable": false,
      "stateMutability": "pure",
      "type": "function"
    },
    {
      "constant": true,
      "inputs": [
        {
          "internalType": "string",
          "name": "productType",
          "type": "string"
        }
      ],
      "name": "indexInListProduct",
      "outputs": [
        {
          "internalType": "uint256",
          "name": "",
          "type": "uint256"
        }
      ],
      "payable": false,
      "stateMutability": "view",
      "type": "function"
    },
    {
      "constant": false,
      "inputs": [
        {
          "internalType": "uint256",
          "name": "productId",
          "type": "uint256"
        },
        {
          "internalType": "bytes",
          "name": "signature",
          "type": "bytes"
        },
        {
          "internalType": "address",
          "name": "coinAddress",
          "type": "address"
        }
      ],
      "name": "farmerConfirmSending",
      "outputs": [],
      "payable": false,
      "stateMutability": "nonpayable",
      "type": "function"
    },
    {
      "constant": false,
      "inputs": [
        {
          "internalType": "uint256",
          "name": "productId",
          "type": "uint256"
        },
        {
          "internalType": "bytes",
          "name": "signature",
          "type": "bytes"
        },
        {
          "internalType": "address",
          "name": "coinAddress",
          "type": "address"
        }
      ],
      "name": "wholeSalerConfirmSending",
      "outputs": [],
      "payable": false,
      "stateMutability": "nonpayable",
      "type": "function"
    },
    {
      "constant": false,
      "inputs": [
        {
          "internalType": "uint256",
          "name": "productId",
          "type": "uint256"
        },
        {
          "internalType": "bytes",
          "name": "signature",
          "type": "bytes"
        },
        {
          "internalType": "address",
          "name": "coinAddress",
          "type": "address"
        }
      ],
      "name": "retailerConfirmSending",
      "outputs": [],
      "payable": false,
      "stateMutability": "nonpayable",
      "type": "function"
    },
    {
      "constant": false,
      "inputs": [
        {
          "internalType": "uint256",
          "name": "productId",
          "type": "uint256"
        },
        {
          "internalType": "uint256",
          "name": "amount",
          "type": "uint256"
        },
        {
          "internalType": "address",
          "name": "coinAddress",
          "type": "address"
        }
      ],
      "name": "buyProductWholesaler",
      "outputs": [],
      "payable": false,
      "stateMutability": "nonpayable",
      "type": "function"
    },
    {
      "constant": false,
      "inputs": [
        {
          "internalType": "uint256",
          "name": "productId",
          "type": "uint256"
        },
        {
          "internalType": "uint256",
          "name": "amount",
          "type": "uint256"
        },
        {
          "internalType": "address",
          "name": "coinAddress",
          "type": "address"
        }
      ],
      "name": "buyProductRetailer",
      "outputs": [],
      "payable": false,
      "stateMutability": "nonpayable",
      "type": "function"
    },
    {
      "constant": false,
      "inputs": [
        {
          "internalType": "uint256",
          "name": "productId",
          "type": "uint256"
        },
        {
          "internalType": "uint256",
          "name": "amount",
          "type": "uint256"
        },
        {
          "internalType": "address",
          "name": "coinAddress",
          "type": "address"
        }
      ],
      "name": "buyProductCustomers",
      "outputs": [],
      "payable": false,
      "stateMutability": "nonpayable",
      "type": "function"
    },
    {
      "constant": true,
      "inputs": [
        {
          "internalType": "string",
          "name": "pproductType",
          "type": "string"
        }
      ],
      "name": "farmersProductsListe",
      "outputs": [
        {
          "internalType": "uint256[]",
          "name": "",
          "type": "uint256[]"
        }
      ],
      "payable": false,
      "stateMutability": "view",
      "type": "function"
    },
    {
      "constant": true,
      "inputs": [
        {
          "internalType": "string",
          "name": "pproductType",
          "type": "string"
        }
      ],
      "name": "wholesalersProductsListe",
      "outputs": [
        {
          "internalType": "uint256[]",
          "name": "",
          "type": "uint256[]"
        }
      ],
      "payable": false,
      "stateMutability": "view",
      "type": "function"
    },
    {
      "constant": true,
      "inputs": [
        {
          "internalType": "string",
          "name": "pproductType",
          "type": "string"
        }
      ],
      "name": "retailersProductsListe",
      "outputs": [
        {
          "internalType": "uint256[]",
          "name": "",
          "type": "uint256[]"
        }
      ],
      "payable": false,
      "stateMutability": "view",
      "type": "function"
    },
    {
      "constant": true,
      "inputs": [
        {
          "internalType": "address",
          "name": "theFarmer",
          "type": "address"
        },
        {
          "internalType": "uint256",
          "name": "listType",
          "type": "uint256"
        }
      ],
      "name": "farmersProductsPersonal",
      "outputs": [
        {
          "internalType": "uint256[]",
          "name": "",
          "type": "uint256[]"
        }
      ],
      "payable": false,
      "stateMutability": "view",
      "type": "function"
    },
    {
      "constant": true,
      "inputs": [
        {
          "internalType": "address",
          "name": "wholeSaerAddr",
          "type": "address"
        },
        {
          "internalType": "uint256",
          "name": "listType",
          "type": "uint256"
        }
      ],
      "name": "wholeSalerProductsPersonal",
      "outputs": [
        {
          "internalType": "uint256[]",
          "name": "",
          "type": "uint256[]"
        }
      ],
      "payable": false,
      "stateMutability": "view",
      "type": "function"
    },
    {
      "constant": true,
      "inputs": [
        {
          "internalType": "address",
          "name": "retailerAddr",
          "type": "address"
        },
        {
          "internalType": "uint256",
          "name": "listType",
          "type": "uint256"
        }
      ],
      "name": "retailerProductsPersonal",
      "outputs": [
        {
          "internalType": "uint256[]",
          "name": "",
          "type": "uint256[]"
        }
      ],
      "payable": false,
      "stateMutability": "view",
      "type": "function"
    },
    {
      "constant": true,
      "inputs": [
        {
          "internalType": "address",
          "name": "theCustomer",
          "type": "address"
        },
        {
          "internalType": "uint256",
          "name": "listType",
          "type": "uint256"
        }
      ],
      "name": "customerProductsPersonal",
      "outputs": [
        {
          "internalType": "uint256[]",
          "name": "",
          "type": "uint256[]"
        }
      ],
      "payable": false,
      "stateMutability": "view",
      "type": "function"
    },
    {
      "constant": false,
      "inputs": [
        {
          "internalType": "uint256",
          "name": "productId",
          "type": "uint256"
        },
        {
          "internalType": "uint256",
          "name": "amount",
          "type": "uint256"
        },
        {
          "internalType": "uint256",
          "name": "price",
          "type": "uint256"
        },
        {
          "internalType": "uint256",
          "name": "minQuantity",
          "type": "uint256"
        }
      ],
      "name": "modifyProduct",
      "outputs": [],
      "payable": false,
      "stateMutability": "nonpayable",
      "type": "function"
    },
    {
      "constant": false,
      "inputs": [
        {
          "internalType": "string",
          "name": "pproductType",
          "type": "string"
        },
        {
          "internalType": "uint256",
          "name": "amount",
          "type": "uint256"
        },
        {
          "internalType": "uint256",
          "name": "price",
          "type": "uint256"
        },
        {
          "internalType": "uint256",
          "name": "minQuantity",
          "type": "uint256"
        },
        {
          "internalType": "string",
          "name": "location",
          "type": "string"
        }
      ],
      "name": "farmerAddProduct",
      "outputs": [],
      "payable": false,
      "stateMutability": "nonpayable",
      "type": "function"
    },
    {
      "constant": false,
      "inputs": [
        {
          "internalType": "uint256",
          "name": "productId",
          "type": "uint256"
        },
        {
          "internalType": "uint256",
          "name": "price",
          "type": "uint256"
        },
        {
          "internalType": "uint256",
          "name": "minQuantity",
          "type": "uint256"
        },
        {
          "internalType": "string",
          "name": "_location",
          "type": "string"
        }
      ],
      "name": "wholeSalerFromStockToSale",
      "outputs": [],
      "payable": false,
      "stateMutability": "nonpayable",
      "type": "function"
    },
    {
      "constant": false,
      "inputs": [
        {
          "internalType": "uint256",
          "name": "productId",
          "type": "uint256"
        },
        {
          "internalType": "uint256",
          "name": "price",
          "type": "uint256"
        },
        {
          "internalType": "uint256",
          "name": "minQuantity",
          "type": "uint256"
        },
        {
          "internalType": "string",
          "name": "_location",
          "type": "string"
        }
      ],
      "name": "retailerFromStockToSale",
      "outputs": [],
      "payable": false,
      "stateMutability": "nonpayable",
      "type": "function"
    },
    {
      "constant": true,
      "inputs": [
        {
          "internalType": "uint256[]",
          "name": "list",
          "type": "uint256[]"
        },
        {
          "internalType": "uint256",
          "name": "value",
          "type": "uint256"
        }
      ],
      "name": "retreiveIndex",
      "outputs": [
        {
          "internalType": "bool",
          "name": "b",
          "type": "bool"
        },
        {
          "internalType": "uint256",
          "name": "u",
          "type": "uint256"
        }
      ],
      "payable": false,
      "stateMutability": "pure",
      "type": "function"
    },
    {
      "constant": true,
      "inputs": [
        {
          "internalType": "string",
          "name": "a",
          "type": "string"
        },
        {
          "internalType": "string",
          "name": "b",
          "type": "string"
        }
      ],
      "name": "compareStrings",
      "outputs": [
        {
          "internalType": "bool",
          "name": "",
          "type": "bool"
        }
      ],
      "payable": false,
      "stateMutability": "pure",
      "type": "function"
    },
    {
      "constant": true,
      "inputs": [
        {
          "internalType": "string[]",
          "name": "list",
          "type": "string[]"
        },
        {
          "internalType": "string",
          "name": "value",
          "type": "string"
        }
      ],
      "name": "retreiveIndexString",
      "outputs": [
        {
          "internalType": "bool",
          "name": "b",
          "type": "bool"
        },
        {
          "internalType": "uint256",
          "name": "u",
          "type": "uint256"
        }
      ],
      "payable": false,
      "stateMutability": "pure",
      "type": "function"
    },
    {
      "constant": true,
      "inputs": [
        {
          "internalType": "uint256[]",
          "name": "_productsId",
          "type": "uint256[]"
        }
      ],
      "name": "productDatafromList",
      "outputs": [
        {
          "components": [
            {
              "internalType": "address",
              "name": "owner",
              "type": "address"
            },
            {
              "internalType": "uint256",
              "name": "parent",
              "type": "uint256"
            },
            {
              "internalType": "uint256",
              "name": "productType",
              "type": "uint256"
            },
            {
              "internalType": "uint256",
              "name": "amount",
              "type": "uint256"
            },
            {
              "internalType": "uint256",
              "name": "amountRemaining",
              "type": "uint256"
            },
            {
              "internalType": "bool",
              "name": "isForSale",
              "type": "bool"
            },
            {
              "internalType": "uint256",
              "name": "price",
              "type": "uint256"
            },
            {
              "internalType": "uint256",
              "name": "minQuantity",
              "type": "uint256"
            },
            {
              "internalType": "uint256",
              "name": "date",
              "type": "uint256"
            }
          ],
          "internalType": "struct SupplyChain.ProductData[]",
          "name": "",
          "type": "tuple[]"
        }
      ],
      "payable": false,
      "stateMutability": "view",
      "type": "function"
    }
  ],
  "bytecode": "0x60806040526103e86000556040518061028001604052806040518060400160405280600881526020017f506f7461746f657300000000000000000000000000000000000000000000000081525081526020016040518060400160405280600881526020017f546f6d61746f657300000000000000000000000000000000000000000000000081525081526020016040518060400160405280600c81526020017f537472617762657272696573000000000000000000000000000000000000000081525081526020016040518060400160405280600581526020017f506c756d7300000000000000000000000000000000000000000000000000000081525081526020016040518060400160405280600781526020017f506561636865730000000000000000000000000000000000000000000000000081525081526020016040518060400160405280600881526020017f456767706c616e7400000000000000000000000000000000000000000000000081525081526020016040518060400160405280600881526020017f437563756d62657200000000000000000000000000000000000000000000000081525081526020016040518060400160405280600481526020017f466967730000000000000000000000000000000000000000000000000000000081525081526020016040518060400160405280600681526020017f4f6e696f6e73000000000000000000000000000000000000000000000000000081525081526020016040518060400160405280600681526020017f4170706c6573000000000000000000000000000000000000000000000000000081525081526020016040518060400160405280600881526020017f436865727269657300000000000000000000000000000000000000000000000081525081526020016040518060400160405280600881526020017f42726f63636f6c6900000000000000000000000000000000000000000000000081525081526020016040518060400160405280600681526020017f477261706573000000000000000000000000000000000000000000000000000081525081526020016040518060400160405280600481526020017f4b6977690000000000000000000000000000000000000000000000000000000081525081526020016040518060400160405280600681526020017f4c656d6f6e73000000000000000000000000000000000000000000000000000081525081526020016040518060400160405280600781526020017f4f72616e6765730000000000000000000000000000000000000000000000000081525081526020016040518060400160405280600781526020017f5370696e6163680000000000000000000000000000000000000000000000000081525081526020016040518060400160405280600781526020017f436172726f74730000000000000000000000000000000000000000000000000081525081526020016040518060400160405280600781526020017f4c6574747563650000000000000000000000000000000000000000000000000081525081526020016040518060400160405280600881526020017f41707269636f74730000000000000000000000000000000000000000000000008152508152506001906014620004c2929190620004d7565b50348015620004d057600080fd5b506200066a565b8280548282559060005260206000209081019282156200052b579160200282015b828111156200052a578251829080519060200190620005199291906200053e565b5091602001919060010190620004f8565b5b5090506200053a9190620005c5565b5090565b828054600181600116156101000203166002900490600052602060002090601f016020900481019282601f106200058157805160ff1916838001178555620005b2565b82800160010185558215620005b2579182015b82811115620005b157825182559160200191906001019062000594565b5b509050620005c19190620005f6565b5090565b620005f391905b80821115620005ef5760008181620005e591906200061e565b50600101620005cc565b5090565b90565b6200061b91905b8082111562000617576000816000905550600101620005fd565b5090565b90565b50805460018160011615610100020316600290046000825580601f1062000646575062000667565b601f016020900490600052602060002090810190620006669190620005f6565b5b50565b615fb1806200067a6000396000f3fe608060405234801561001057600080fd5b50600436106101a95760003560e01c80635aa8e244116100f9578063ba438a0711610097578063d3c2c39811610071578063d3c2c39814610555578063d598d46814610585578063f0a0c831146105a1578063f636a50e146105bd576101a9565b8063ba438a07146104d9578063bed34bba146104f5578063c093274014610525576101a9565b8063779b8202116100d3578063779b8202146104255780637c09b0bb1461045d578063aa5899231461048d578063b7c64877146104a9576101a9565b80635aa8e244146103955780635b6beeb9146103c55780636dba2783146103f5576101a9565b806333a4d9911161016657806339e00d751161014057806339e00d75146102fd5780634cb3eadc14610319578063568ac0b4146103495780635751bfdc14610379576101a9565b806333a4d991146102a757806335da8079146102c557806337d684a5146102e1576101a9565b80630a0b2d4d146101ae5780630fa0995b146101de57806315e91ad5146101fa578063196ad2fd1461022a57806319b470f91461025b578063333f92691461028b575b600080fd5b6101c860048036036101c391908101906153ed565b6105ee565b6040516101d59190615c72565b60405180910390f35b6101f860048036036101f39190810190615620565b6106f0565b005b610214600480360361020f9190810190615287565b610aad565b6040516102219190615b8d565b60405180910390f35b610244600480360361023f9190810190615370565b610d3a565b604051610252929190615bca565b60405180910390f35b61027560048036036102709190810190615287565b610da7565b6040516102829190615b8d565b60405180910390f35b6102a560048036036102a091908101906155d1565b610e51565b005b6102af61172d565b6040516102bc9190615c72565b60405180910390f35b6102df60048036036102da919081019061556a565b611733565b005b6102fb60048036036102f691908101906155d1565b611e8f565b005b61031760048036036103129190810190615620565b61276b565b005b610333600480360361032e91908101906153ed565b612b28565b6040516103409190615b8d565b60405180910390f35b610363600480360361035e919081019061525e565b612ba4565b6040516103709190615c0e565b60405180910390f35b610393600480360361038e91908101906155d1565b612c54565b005b6103af60048036036103aa91908101906153ed565b613530565b6040516103bc9190615b8d565b60405180910390f35b6103df60048036036103da91908101906153ed565b6135ac565b6040516103ec9190615bf3565b60405180910390f35b61040f600480360361040a91908101906153ed565b6135dc565b60405161041c9190615b8d565b60405180910390f35b61043f600480360361043a9190810190615541565b613658565b60405161045499989796959493929190615ade565b60405180910390f35b61047760048036036104729190810190615541565b6136d3565b6040516104849190615c0e565b60405180910390f35b6104a760048036036104a2919081019061556a565b61378c565b005b6104c360048036036104be9190810190615287565b613ee8565b6040516104d09190615b8d565b60405180910390f35b6104f360048036036104ee919081019061556a565b614033565b005b61050f600480360361050a919081019061542e565b614723565b60405161051c9190615baf565b60405180910390f35b61053f600480360361053a919081019061532f565b61477c565b60405161054c9190615b6b565b60405180910390f35b61056f600480360361056a9190810190615287565b6148e9565b60405161057c9190615b8d565b60405180910390f35b61059f600480360361059a919081019061569b565b614b76565b005b6105bb60048036036105b6919081019061549a565b614c71565b005b6105d760048036036105d291908101906152c3565b614ef0565b6040516105e5929190615bca565b60405180910390f35b60008060006106de6001805480602002602001604051908101604052809291908181526020016000905b828210156106d4578382906000526020600020018054600181600116156101000203166002900480601f0160208091040260200160405190810160405280929190818152602001828054600181600116156101000203166002900480156106c05780601f10610695576101008083540402835291602001916106c0565b820191906000526020600020905b8154815290600101906020018083116106a357829003601f168201915b505050505081526020019060010190610618565b5050505085614ef0565b80925081935050508092505050919050565b600080846005600088815260200190815260200160002060060181905550857f6d97897343a1a8545b3799dc518f14c3e89c1761ef2a3280dccf03b0c5ec0f738460405161073e9190615c30565b60405180910390a260016005600088815260200190815260200160002060050160006101000a81548160ff02191690831515021790555083600560008881526020019081526020016000206007018190555061082a600760003373ffffffffffffffffffffffffffffffffffffffff1673ffffffffffffffffffffffffffffffffffffffff16815260200190815260200160002060010180548060200260200160405190810160405280929190818152602001828054801561081f57602002820191906000526020600020905b81548152602001906001019080831161080b575b505050505087610d3a565b80925081935050508115610a5757600760003373ffffffffffffffffffffffffffffffffffffffff1673ffffffffffffffffffffffffffffffffffffffff1681526020019081526020016000206001016001600760003373ffffffffffffffffffffffffffffffffffffffff1673ffffffffffffffffffffffffffffffffffffffff1681526020019081526020016000206001018054905003815481106108cd57fe5b9060005260206000200154600760003373ffffffffffffffffffffffffffffffffffffffff1673ffffffffffffffffffffffffffffffffffffffff168152602001908152602001600020600101828154811061092557fe5b9060005260206000200181905550600760003373ffffffffffffffffffffffffffffffffffffffff1673ffffffffffffffffffffffffffffffffffffffff16815260200190815260200160002060010180548061097e57fe5b60019003818190600052602060002001600090559055600760003373ffffffffffffffffffffffffffffffffffffffff1673ffffffffffffffffffffffffffffffffffffffff16815260200190815260200160002060000186908060018154018082558091505090600182039060005260206000200160009091929091909150555060036000600560008981526020019081526020016000206002015481526020019081526020016000206000018690806001815401808255809150509060018203906000526020600020016000909192909190915055505b3373ffffffffffffffffffffffffffffffffffffffff167f06d195a39cae44c0b031a2dc9a496102b4bd20ce29070570392138958823185887604051610a9d9190615c72565b60405180910390a2505050505050565b60606001821415610b5057600760008473ffffffffffffffffffffffffffffffffffffffff1673ffffffffffffffffffffffffffffffffffffffff168152602001908152602001600020600001805480602002602001604051908101604052809291908181526020018280548015610b4457602002820191906000526020600020905b815481526020019060010190808311610b30575b50505050509050610d34565b6002821415610bf157600760008473ffffffffffffffffffffffffffffffffffffffff1673ffffffffffffffffffffffffffffffffffffffff168152602001908152602001600020600101805480602002602001604051908101604052809291908181526020018280548015610be557602002820191906000526020600020905b815481526020019060010190808311610bd1575b50505050509050610d34565b6003821415610c9257600760008473ffffffffffffffffffffffffffffffffffffffff1673ffffffffffffffffffffffffffffffffffffffff168152602001908152602001600020600301805480602002602001604051908101604052809291908181526020018280548015610c8657602002820191906000526020600020905b815481526020019060010190808311610c72575b50505050509050610d34565b6004821415610d3357600760008473ffffffffffffffffffffffffffffffffffffffff1673ffffffffffffffffffffffffffffffffffffffff168152602001908152602001600020600201805480602002602001604051908101604052809291908181526020018280548015610d2757602002820191906000526020600020905b815481526020019060010190808311610d13575b50505050509050610d34565b5b92915050565b600080600080905060008090505b8551811015610d8d5784868281518110610d5e57fe5b60200260200101511415610d785760019350809250610d8d565b81806001019250508080600101915050610d48565b508451811415610d9f57600092508091505b509250929050565b60606004821415610e4a57600960008473ffffffffffffffffffffffffffffffffffffffff1673ffffffffffffffffffffffffffffffffffffffff168152602001908152602001600020600001805480602002602001604051908101604052809291908181526020018280548015610e3e57602002820191906000526020600020905b815481526020019060010190808311610e2a575b50505050509050610e4b565b5b92915050565b6000808154809291906001019190505550610e6a614f64565b60056000858152602001908152602001600020604051806101200160405290816000820160009054906101000a900473ffffffffffffffffffffffffffffffffffffffff1673ffffffffffffffffffffffffffffffffffffffff1673ffffffffffffffffffffffffffffffffffffffff168152602001600182015481526020016002820154815260200160038201548152602001600482015481526020016005820160009054906101000a900460ff16151515158152602001600682015481526020016007820154815260200160088201548152505090508173ffffffffffffffffffffffffffffffffffffffff1663461686308260000151336000548560c0015188026040518563ffffffff1660e01b8152600401610f8d9493929190615a4d565b600060405180830381600087803b158015610fa757600080fd5b505af1158015610fbb573d6000803e3d6000fd5b5050505082600560008681526020019081526020016000206004016000828254039250508190555060008490506040518061012001604052803373ffffffffffffffffffffffffffffffffffffffff16815260200182815260200183604001518152602001858152602001858152602001600015158152602001600081526020016000815260200142815250600560008054815260200190815260200160002060008201518160000160006101000a81548173ffffffffffffffffffffffffffffffffffffffff021916908373ffffffffffffffffffffffffffffffffffffffff1602179055506020820151816001015560408201518160020155606082015181600301556080820151816004015560a08201518160050160006101000a81548160ff02191690831515021790555060c0820151816006015560e082015181600701556101008201518160080155905050600960003373ffffffffffffffffffffffffffffffffffffffff1673ffffffffffffffffffffffffffffffffffffffff168152602001908152602001600020600001600054908060018154018082558091505090600182039060005260206000200160009091929091909150555060086000836000015173ffffffffffffffffffffffffffffffffffffffff1673ffffffffffffffffffffffffffffffffffffffff168152602001908152602001600020600301600054908060018154018082558091505090600182039060005260206000200160009091929091909150555060056000868152602001908152602001600020600401546005600087815260200190815260200160002060070154111561125257600560008681526020019081526020016000206004015460056000878152602001908152602001600020600701819055505b6000600560008781526020019081526020016000206004015414156117265760008060008061134760086000600560008d815260200190815260200160002060000160009054906101000a900473ffffffffffffffffffffffffffffffffffffffff1673ffffffffffffffffffffffffffffffffffffffff1673ffffffffffffffffffffffffffffffffffffffff16815260200190815260200160002060000180548060200260200160405190810160405280929190818152602001828054801561133c57602002820191906000526020600020905b815481526020019060010190808311611328575b50505050508a610d3a565b80945081955050506113d360046000600560008d81526020019081526020016000206002015481526020019081526020016000206000018054806020026020016040519081016040528092919081815260200182805480156113c857602002820191906000526020600020905b8154815260200190600101908083116113b4575b50505050508a610d3a565b809250819350505083156116165760086000600560008c815260200190815260200160002060000160009054906101000a900473ffffffffffffffffffffffffffffffffffffffff1673ffffffffffffffffffffffffffffffffffffffff1673ffffffffffffffffffffffffffffffffffffffff168152602001908152602001600020600001600160086000600560008e815260200190815260200160002060000160009054906101000a900473ffffffffffffffffffffffffffffffffffffffff1673ffffffffffffffffffffffffffffffffffffffff1673ffffffffffffffffffffffffffffffffffffffff1681526020019081526020016000206000018054905003815481106114e257fe5b906000526020600020015460086000600560008d815260200190815260200160002060000160009054906101000a900473ffffffffffffffffffffffffffffffffffffffff1673ffffffffffffffffffffffffffffffffffffffff1673ffffffffffffffffffffffffffffffffffffffff168152602001908152602001600020600001848154811061157057fe5b906000526020600020018190555060086000600560008c815260200190815260200160002060000160009054906101000a900473ffffffffffffffffffffffffffffffffffffffff1673ffffffffffffffffffffffffffffffffffffffff1673ffffffffffffffffffffffffffffffffffffffff1681526020019081526020016000206000018054806115ff57fe5b600190038181906000526020600020016000905590555b81156117215760046000600560008c8152602001908152602001600020600201548152602001908152602001600020600001600160046000600560008e815260200190815260200160002060020154815260200190815260200160002060000180549050038154811061168557fe5b906000526020600020015460046000600560008d815260200190815260200160002060020154815260200190815260200160002060000182815481106116c757fe5b906000526020600020018190555060046000600560008c815260200190815260200160002060020154815260200190815260200160002060000180548061170a57fe5b600190038181906000526020600020016000905590555b505050505b5050505050565b60005481565b61173b614f64565b60056000858152602001908152602001600020604051806101200160405290816000820160009054906101000a900473ffffffffffffffffffffffffffffffffffffffff1673ffffffffffffffffffffffffffffffffffffffff1673ffffffffffffffffffffffffffffffffffffffff168152602001600182015481526020016002820154815260200160038201548152602001600482015481526020016005820160009054906101000a900460ff1615151515815260200160068201548152602001600782015481526020016008820154815250509050600081600001519050611824614f64565b6005600084602001518152602001908152602001600020604051806101200160405290816000820160009054906101000a900473ffffffffffffffffffffffffffffffffffffffff1673ffffffffffffffffffffffffffffffffffffffff1673ffffffffffffffffffffffffffffffffffffffff168152602001600182015481526020016002820154815260200160038201548152602001600482015481526020016005820160009054906101000a900460ff16151515158152602001600682015481526020016007820154815260200160088201548152505090506000816000015190508473ffffffffffffffffffffffffffffffffffffffff1663c4c89c818285898b6040518563ffffffff1660e01b81526004016119489493929190615a92565b602060405180830381600087803b15801561196257600080fd5b505af1158015611976573d6000803e3d6000fd5b505050506040513d601f19601f8201168201806040525061199a91908101906153c4565b50600080600080611a3b600660008773ffffffffffffffffffffffffffffffffffffffff1673ffffffffffffffffffffffffffffffffffffffff168152602001908152602001600020600101805480602002602001604051908101604052809291908181526020018280548015611a3057602002820191906000526020600020905b815481526020019060010190808311611a1c575b50505050508c610d3a565b8094508195505050611add600760008973ffffffffffffffffffffffffffffffffffffffff1673ffffffffffffffffffffffffffffffffffffffff168152602001908152602001600020600201805480602002602001604051908101604052809291908181526020018280548015611ad257602002820191906000526020600020905b815481526020019060010190808311611abe575b50505050508c610d3a565b8092508193505050838015611aef5750835b15611e8257600660008673ffffffffffffffffffffffffffffffffffffffff1673ffffffffffffffffffffffffffffffffffffffff1681526020019081526020016000206001016001600660008873ffffffffffffffffffffffffffffffffffffffff1673ffffffffffffffffffffffffffffffffffffffff168152602001908152602001600020600101805490500381548110611b8957fe5b9060005260206000200154600660008773ffffffffffffffffffffffffffffffffffffffff1673ffffffffffffffffffffffffffffffffffffffff1681526020019081526020016000206001018481548110611be157fe5b9060005260206000200181905550600660008673ffffffffffffffffffffffffffffffffffffffff1673ffffffffffffffffffffffffffffffffffffffff168152602001908152602001600020600101805480611c3a57fe5b60019003818190600052602060002001600090559055600760008873ffffffffffffffffffffffffffffffffffffffff1673ffffffffffffffffffffffffffffffffffffffff1681526020019081526020016000206002016001600760008a73ffffffffffffffffffffffffffffffffffffffff1673ffffffffffffffffffffffffffffffffffffffff168152602001908152602001600020600201805490500381548110611ce557fe5b9060005260206000200154600760008973ffffffffffffffffffffffffffffffffffffffff1673ffffffffffffffffffffffffffffffffffffffff1681526020019081526020016000206002018481548110611d3d57fe5b9060005260206000200181905550600760008873ffffffffffffffffffffffffffffffffffffffff1673ffffffffffffffffffffffffffffffffffffffff168152602001908152602001600020600201805480611d9657fe5b60019003818190600052602060002001600090559055600760008873ffffffffffffffffffffffffffffffffffffffff1673ffffffffffffffffffffffffffffffffffffffff1681526020019081526020016000206001018b9080600181540180825580915050906001820390600052602060002001600090919290919091505550876000015173ffffffffffffffffffffffffffffffffffffffff163373ffffffffffffffffffffffffffffffffffffffff167f91114d9b00a39d30565ac9db69f2ad2f767ba36ecd1fa5a65c4d2ce4f13fa4018d604051611e799190615c72565b60405180910390a35b5050505050505050505050565b6000808154809291906001019190505550611ea8614f64565b60056000858152602001908152602001600020604051806101200160405290816000820160009054906101000a900473ffffffffffffffffffffffffffffffffffffffff1673ffffffffffffffffffffffffffffffffffffffff1673ffffffffffffffffffffffffffffffffffffffff168152602001600182015481526020016002820154815260200160038201548152602001600482015481526020016005820160009054906101000a900460ff16151515158152602001600682015481526020016007820154815260200160088201548152505090508173ffffffffffffffffffffffffffffffffffffffff1663461686308260000151336000548560c0015188026040518563ffffffff1660e01b8152600401611fcb9493929190615a4d565b600060405180830381600087803b158015611fe557600080fd5b505af1158015611ff9573d6000803e3d6000fd5b5050505082600560008681526020019081526020016000206004016000828254039250508190555060008490506040518061012001604052803373ffffffffffffffffffffffffffffffffffffffff16815260200182815260200183604001518152602001858152602001858152602001600015158152602001600081526020016000815260200142815250600560008054815260200190815260200160002060008201518160000160006101000a81548173ffffffffffffffffffffffffffffffffffffffff021916908373ffffffffffffffffffffffffffffffffffffffff1602179055506020820151816001015560408201518160020155606082015181600301556080820151816004015560a08201518160050160006101000a81548160ff02191690831515021790555060c0820151816006015560e082015181600701556101008201518160080155905050600860003373ffffffffffffffffffffffffffffffffffffffff1673ffffffffffffffffffffffffffffffffffffffff168152602001908152602001600020600201600054908060018154018082558091505090600182039060005260206000200160009091929091909150555060076000836000015173ffffffffffffffffffffffffffffffffffffffff1673ffffffffffffffffffffffffffffffffffffffff168152602001908152602001600020600301600054908060018154018082558091505090600182039060005260206000200160009091929091909150555060056000868152602001908152602001600020600401546005600087815260200190815260200160002060070154111561229057600560008681526020019081526020016000206004015460056000878152602001908152602001600020600701819055505b6000600560008781526020019081526020016000206004015414156127645760008060008061238560076000600560008d815260200190815260200160002060000160009054906101000a900473ffffffffffffffffffffffffffffffffffffffff1673ffffffffffffffffffffffffffffffffffffffff1673ffffffffffffffffffffffffffffffffffffffff16815260200190815260200160002060000180548060200260200160405190810160405280929190818152602001828054801561237a57602002820191906000526020600020905b815481526020019060010190808311612366575b50505050508a610d3a565b809450819550505061241160036000600560008d815260200190815260200160002060020154815260200190815260200160002060000180548060200260200160405190810160405280929190818152602001828054801561240657602002820191906000526020600020905b8154815260200190600101908083116123f2575b50505050508a610d3a565b809250819350505083156126545760076000600560008c815260200190815260200160002060000160009054906101000a900473ffffffffffffffffffffffffffffffffffffffff1673ffffffffffffffffffffffffffffffffffffffff1673ffffffffffffffffffffffffffffffffffffffff168152602001908152602001600020600001600160076000600560008e815260200190815260200160002060000160009054906101000a900473ffffffffffffffffffffffffffffffffffffffff1673ffffffffffffffffffffffffffffffffffffffff1673ffffffffffffffffffffffffffffffffffffffff16815260200190815260200160002060000180549050038154811061252057fe5b906000526020600020015460076000600560008d815260200190815260200160002060000160009054906101000a900473ffffffffffffffffffffffffffffffffffffffff1673ffffffffffffffffffffffffffffffffffffffff1673ffffffffffffffffffffffffffffffffffffffff16815260200190815260200160002060000184815481106125ae57fe5b906000526020600020018190555060076000600560008c815260200190815260200160002060000160009054906101000a900473ffffffffffffffffffffffffffffffffffffffff1673ffffffffffffffffffffffffffffffffffffffff1673ffffffffffffffffffffffffffffffffffffffff16815260200190815260200160002060000180548061263d57fe5b600190038181906000526020600020016000905590555b811561275f5760036000600560008c8152602001908152602001600020600201548152602001908152602001600020600001600160036000600560008e81526020019081526020016000206002015481526020019081526020016000206000018054905003815481106126c357fe5b906000526020600020015460036000600560008d8152602001908152602001600020600201548152602001908152602001600020600001828154811061270557fe5b906000526020600020018190555060036000600560008c815260200190815260200160002060020154815260200190815260200160002060000180548061274857fe5b600190038181906000526020600020016000905590555b505050505b5050505050565b600080846005600088815260200190815260200160002060060181905550857f6d97897343a1a8545b3799dc518f14c3e89c1761ef2a3280dccf03b0c5ec0f73846040516127b99190615c30565b60405180910390a260016005600088815260200190815260200160002060050160006101000a81548160ff0219169083151502179055508360056000888152602001908152602001600020600701819055506128a5600860003373ffffffffffffffffffffffffffffffffffffffff1673ffffffffffffffffffffffffffffffffffffffff16815260200190815260200160002060010180548060200260200160405190810160405280929190818152602001828054801561289a57602002820191906000526020600020905b815481526020019060010190808311612886575b505050505087610d3a565b80925081935050508115612ad257600860003373ffffffffffffffffffffffffffffffffffffffff1673ffffffffffffffffffffffffffffffffffffffff1681526020019081526020016000206001016001600860003373ffffffffffffffffffffffffffffffffffffffff1673ffffffffffffffffffffffffffffffffffffffff16815260200190815260200160002060010180549050038154811061294857fe5b9060005260206000200154600860003373ffffffffffffffffffffffffffffffffffffffff1673ffffffffffffffffffffffffffffffffffffffff16815260200190815260200160002060010182815481106129a057fe5b9060005260206000200181905550600860003373ffffffffffffffffffffffffffffffffffffffff1673ffffffffffffffffffffffffffffffffffffffff1681526020019081526020016000206001018054806129f957fe5b60019003818190600052602060002001600090559055600860003373ffffffffffffffffffffffffffffffffffffffff1673ffffffffffffffffffffffffffffffffffffffff16815260200190815260200160002060000186908060018154018082558091505090600182039060005260206000200160009091929091909150555060046000600560008981526020019081526020016000206002015481526020019081526020016000206000018690806001815401808255809150509060018203906000526020600020016000909192909190915055505b3373ffffffffffffffffffffffffffffffffffffffff167f06d195a39cae44c0b031a2dc9a496102b4bd20ce29070570392138958823185887604051612b189190615c72565b60405180910390a2505050505050565b60606000612b35836105ee565b905060026000828152602001908152602001600020600001805480602002602001604051908101604052809291908181526020018280548015612b9757602002820191906000526020600020905b815481526020019060010190808311612b83575b5050505050915050919050565b600a6020528060005260406000206000915090508054600181600116156101000203166002900480601f016020809104026020016040519081016040528092919081815260200182805460018160011615610100020316600290048015612c4c5780601f10612c2157610100808354040283529160200191612c4c565b820191906000526020600020905b815481529060010190602001808311612c2f57829003601f168201915b505050505081565b6000808154809291906001019190505550612c6d614f64565b60056000858152602001908152602001600020604051806101200160405290816000820160009054906101000a900473ffffffffffffffffffffffffffffffffffffffff1673ffffffffffffffffffffffffffffffffffffffff1673ffffffffffffffffffffffffffffffffffffffff168152602001600182015481526020016002820154815260200160038201548152602001600482015481526020016005820160009054906101000a900460ff16151515158152602001600682015481526020016007820154815260200160088201548152505090508173ffffffffffffffffffffffffffffffffffffffff1663461686308260000151336000548560c0015188026040518563ffffffff1660e01b8152600401612d909493929190615a4d565b600060405180830381600087803b158015612daa57600080fd5b505af1158015612dbe573d6000803e3d6000fd5b5050505082600560008681526020019081526020016000206004016000828254039250508190555060008490506040518061012001604052803373ffffffffffffffffffffffffffffffffffffffff16815260200182815260200183604001518152602001858152602001858152602001600015158152602001600081526020016000815260200142815250600560008054815260200190815260200160002060008201518160000160006101000a81548173ffffffffffffffffffffffffffffffffffffffff021916908373ffffffffffffffffffffffffffffffffffffffff1602179055506020820151816001015560408201518160020155606082015181600301556080820151816004015560a08201518160050160006101000a81548160ff02191690831515021790555060c0820151816006015560e082015181600701556101008201518160080155905050600760003373ffffffffffffffffffffffffffffffffffffffff1673ffffffffffffffffffffffffffffffffffffffff168152602001908152602001600020600201600054908060018154018082558091505090600182039060005260206000200160009091929091909150555060066000836000015173ffffffffffffffffffffffffffffffffffffffff1673ffffffffffffffffffffffffffffffffffffffff168152602001908152602001600020600101600054908060018154018082558091505090600182039060005260206000200160009091929091909150555060056000868152602001908152602001600020600401546005600087815260200190815260200160002060070154111561305557600560008681526020019081526020016000206004015460056000878152602001908152602001600020600701819055505b6000600560008781526020019081526020016000206004015414156135295760008060008061314a60066000600560008d815260200190815260200160002060000160009054906101000a900473ffffffffffffffffffffffffffffffffffffffff1673ffffffffffffffffffffffffffffffffffffffff1673ffffffffffffffffffffffffffffffffffffffff16815260200190815260200160002060000180548060200260200160405190810160405280929190818152602001828054801561313f57602002820191906000526020600020905b81548152602001906001019080831161312b575b50505050508a610d3a565b80945081955050506131d660026000600560008d81526020019081526020016000206002015481526020019081526020016000206000018054806020026020016040519081016040528092919081815260200182805480156131cb57602002820191906000526020600020905b8154815260200190600101908083116131b7575b50505050508a610d3a565b809250819350505083156134195760066000600560008c815260200190815260200160002060000160009054906101000a900473ffffffffffffffffffffffffffffffffffffffff1673ffffffffffffffffffffffffffffffffffffffff1673ffffffffffffffffffffffffffffffffffffffff168152602001908152602001600020600001600160066000600560008e815260200190815260200160002060000160009054906101000a900473ffffffffffffffffffffffffffffffffffffffff1673ffffffffffffffffffffffffffffffffffffffff1673ffffffffffffffffffffffffffffffffffffffff1681526020019081526020016000206000018054905003815481106132e557fe5b906000526020600020015460066000600560008d815260200190815260200160002060000160009054906101000a900473ffffffffffffffffffffffffffffffffffffffff1673ffffffffffffffffffffffffffffffffffffffff1673ffffffffffffffffffffffffffffffffffffffff168152602001908152602001600020600001848154811061337357fe5b906000526020600020018190555060066000600560008c815260200190815260200160002060000160009054906101000a900473ffffffffffffffffffffffffffffffffffffffff1673ffffffffffffffffffffffffffffffffffffffff1673ffffffffffffffffffffffffffffffffffffffff16815260200190815260200160002060000180548061340257fe5b600190038181906000526020600020016000905590555b81156135245760026000600560008c8152602001908152602001600020600201548152602001908152602001600020600001600160026000600560008e815260200190815260200160002060020154815260200190815260200160002060000180549050038154811061348857fe5b906000526020600020015460026000600560008d815260200190815260200160002060020154815260200190815260200160002060000182815481106134ca57fe5b906000526020600020018190555060026000600560008c815260200190815260200160002060020154815260200190815260200160002060000180548061350d57fe5b600190038181906000526020600020016000905590555b505050505b5050505050565b6060600061353d836105ee565b90506004600082815260200190815260200160002060000180548060200260200160405190810160405280929190818152602001828054801561359f57602002820191906000526020600020905b81548152602001906001019080831161358b575b5050505050915050919050565b6000816040516020016135bf9190615a36565b604051602081830303815290604052805190602001209050919050565b606060006135e9836105ee565b90506003600082815260200190815260200160002060000180548060200260200160405190810160405280929190818152602001828054801561364b57602002820191906000526020600020905b815481526020019060010190808311613637575b5050505050915050919050565b60056020528060005260406000206000915090508060000160009054906101000a900473ffffffffffffffffffffffffffffffffffffffff16908060010154908060020154908060030154908060040154908060050160009054906101000a900460ff16908060060154908060070154908060080154905089565b600181815481106136e057fe5b906000526020600020016000915090508054600181600116156101000203166002900480601f0160208091040260200160405190810160405280929190818152602001828054600181600116156101000203166002900480156137845780601f1061375957610100808354040283529160200191613784565b820191906000526020600020905b81548152906001019060200180831161376757829003601f168201915b505050505081565b613794614f64565b60056000858152602001908152602001600020604051806101200160405290816000820160009054906101000a900473ffffffffffffffffffffffffffffffffffffffff1673ffffffffffffffffffffffffffffffffffffffff1673ffffffffffffffffffffffffffffffffffffffff168152602001600182015481526020016002820154815260200160038201548152602001600482015481526020016005820160009054906101000a900460ff161515151581526020016006820154815260200160078201548152602001600882015481525050905060008160000151905061387d614f64565b6005600084602001518152602001908152602001600020604051806101200160405290816000820160009054906101000a900473ffffffffffffffffffffffffffffffffffffffff1673ffffffffffffffffffffffffffffffffffffffff1673ffffffffffffffffffffffffffffffffffffffff168152602001600182015481526020016002820154815260200160038201548152602001600482015481526020016005820160009054906101000a900460ff16151515158152602001600682015481526020016007820154815260200160088201548152505090506000816000015190508473ffffffffffffffffffffffffffffffffffffffff1663c4c89c818285898b6040518563ffffffff1660e01b81526004016139a19493929190615a92565b602060405180830381600087803b1580156139bb57600080fd5b505af11580156139cf573d6000803e3d6000fd5b505050506040513d601f19601f820116820180604052506139f391908101906153c4565b50600080600080613a94600760008773ffffffffffffffffffffffffffffffffffffffff1673ffffffffffffffffffffffffffffffffffffffff168152602001908152602001600020600301805480602002602001604051908101604052809291908181526020018280548015613a8957602002820191906000526020600020905b815481526020019060010190808311613a75575b50505050508c610d3a565b8094508195505050613b36600860008973ffffffffffffffffffffffffffffffffffffffff1673ffffffffffffffffffffffffffffffffffffffff168152602001908152602001600020600201805480602002602001604051908101604052809291908181526020018280548015613b2b57602002820191906000526020600020905b815481526020019060010190808311613b17575b50505050508c610d3a565b8092508193505050838015613b485750835b15613edb57600760008673ffffffffffffffffffffffffffffffffffffffff1673ffffffffffffffffffffffffffffffffffffffff1681526020019081526020016000206003016001600760008873ffffffffffffffffffffffffffffffffffffffff1673ffffffffffffffffffffffffffffffffffffffff168152602001908152602001600020600301805490500381548110613be257fe5b9060005260206000200154600760008773ffffffffffffffffffffffffffffffffffffffff1673ffffffffffffffffffffffffffffffffffffffff1681526020019081526020016000206003018481548110613c3a57fe5b9060005260206000200181905550600760008673ffffffffffffffffffffffffffffffffffffffff1673ffffffffffffffffffffffffffffffffffffffff168152602001908152602001600020600301805480613c9357fe5b60019003818190600052602060002001600090559055600860008873ffffffffffffffffffffffffffffffffffffffff1673ffffffffffffffffffffffffffffffffffffffff1681526020019081526020016000206002016001600860008a73ffffffffffffffffffffffffffffffffffffffff1673ffffffffffffffffffffffffffffffffffffffff168152602001908152602001600020600201805490500381548110613d3e57fe5b9060005260206000200154600860008973ffffffffffffffffffffffffffffffffffffffff1673ffffffffffffffffffffffffffffffffffffffff1681526020019081526020016000206002018481548110613d9657fe5b9060005260206000200181905550600860008873ffffffffffffffffffffffffffffffffffffffff1673ffffffffffffffffffffffffffffffffffffffff168152602001908152602001600020600201805480613def57fe5b60019003818190600052602060002001600090559055600860008873ffffffffffffffffffffffffffffffffffffffff1673ffffffffffffffffffffffffffffffffffffffff1681526020019081526020016000206001018b9080600181540180825580915050906001820390600052602060002001600090919290919091505550876000015173ffffffffffffffffffffffffffffffffffffffff163373ffffffffffffffffffffffffffffffffffffffff167f91114d9b00a39d30565ac9db69f2ad2f767ba36ecd1fa5a65c4d2ce4f13fa4018d604051613ed29190615c72565b60405180910390a35b5050505050505050505050565b60606001821415613f8b57600660008473ffffffffffffffffffffffffffffffffffffffff1673ffffffffffffffffffffffffffffffffffffffff168152602001908152602001600020600001805480602002602001604051908101604052809291908181526020018280548015613f7f57602002820191906000526020600020905b815481526020019060010190808311613f6b575b5050505050905061402d565b600382141561402c57600660008473ffffffffffffffffffffffffffffffffffffffff1673ffffffffffffffffffffffffffffffffffffffff16815260200190815260200160002060010180548060200260200160405190810160405280929190818152602001828054801561402057602002820191906000526020600020905b81548152602001906001019080831161400c575b5050505050905061402d565b5b92915050565b61403b614f64565b60056000858152602001908152602001600020604051806101200160405290816000820160009054906101000a900473ffffffffffffffffffffffffffffffffffffffff1673ffffffffffffffffffffffffffffffffffffffff1673ffffffffffffffffffffffffffffffffffffffff168152602001600182015481526020016002820154815260200160038201548152602001600482015481526020016005820160009054906101000a900460ff1615151515815260200160068201548152602001600782015481526020016008820154815250509050600081600001519050614124614f64565b6005600084602001518152602001908152602001600020604051806101200160405290816000820160009054906101000a900473ffffffffffffffffffffffffffffffffffffffff1673ffffffffffffffffffffffffffffffffffffffff1673ffffffffffffffffffffffffffffffffffffffff168152602001600182015481526020016002820154815260200160038201548152602001600482015481526020016005820160009054906101000a900460ff16151515158152602001600682015481526020016007820154815260200160088201548152505090506000816000015190508473ffffffffffffffffffffffffffffffffffffffff1663c4c89c818285898b6040518563ffffffff1660e01b81526004016142489493929190615a92565b602060405180830381600087803b15801561426257600080fd5b505af1158015614276573d6000803e3d6000fd5b505050506040513d601f19601f8201168201806040525061429a91908101906153c4565b5060008060008061433b600860008773ffffffffffffffffffffffffffffffffffffffff1673ffffffffffffffffffffffffffffffffffffffff16815260200190815260200160002060030180548060200260200160405190810160405280929190818152602001828054801561433057602002820191906000526020600020905b81548152602001906001019080831161431c575b50505050508c610d3a565b80945081955050506143dd600960008973ffffffffffffffffffffffffffffffffffffffff1673ffffffffffffffffffffffffffffffffffffffff1681526020019081526020016000206000018054806020026020016040519081016040528092919081815260200182805480156143d257602002820191906000526020600020905b8154815260200190600101908083116143be575b50505050508c610d3a565b80925081935050508380156143ef5750835b1561471657600860008673ffffffffffffffffffffffffffffffffffffffff1673ffffffffffffffffffffffffffffffffffffffff1681526020019081526020016000206003016001600860008873ffffffffffffffffffffffffffffffffffffffff1673ffffffffffffffffffffffffffffffffffffffff16815260200190815260200160002060030180549050038154811061448957fe5b9060005260206000200154600860008773ffffffffffffffffffffffffffffffffffffffff1673ffffffffffffffffffffffffffffffffffffffff16815260200190815260200160002060030184815481106144e157fe5b9060005260206000200181905550600860008673ffffffffffffffffffffffffffffffffffffffff1673ffffffffffffffffffffffffffffffffffffffff16815260200190815260200160002060030180548061453a57fe5b60019003818190600052602060002001600090559055600960008873ffffffffffffffffffffffffffffffffffffffff1673ffffffffffffffffffffffffffffffffffffffff1681526020019081526020016000206000016001600960008a73ffffffffffffffffffffffffffffffffffffffff1673ffffffffffffffffffffffffffffffffffffffff1681526020019081526020016000206000018054905003815481106145e557fe5b9060005260206000200154600960008973ffffffffffffffffffffffffffffffffffffffff1673ffffffffffffffffffffffffffffffffffffffff168152602001908152602001600020600001848154811061463d57fe5b9060005260206000200181905550600960008873ffffffffffffffffffffffffffffffffffffffff1673ffffffffffffffffffffffffffffffffffffffff16815260200190815260200160002060000180548061469657fe5b60019003818190600052602060002001600090559055876000015173ffffffffffffffffffffffffffffffffffffffff163373ffffffffffffffffffffffffffffffffffffffff167f91114d9b00a39d30565ac9db69f2ad2f767ba36ecd1fa5a65c4d2ce4f13fa4018d60405161470d9190615c72565b60405180910390a35b5050505050505050505050565b6000816040516020016147369190615a36565b604051602081830303815290604052805190602001208360405160200161475d9190615a36565b6040516020818303038152906040528051906020012014905092915050565b60608082516040519080825280602002602001820160405280156147ba57816020015b6147a7614fc8565b81526020019060019003908161479f5790505b50905060008090505b83518110156148df576000600560008684815181106147de57fe5b60200260200101518152602001908152602001600020905080604051806101200160405290816000820160009054906101000a900473ffffffffffffffffffffffffffffffffffffffff1673ffffffffffffffffffffffffffffffffffffffff1673ffffffffffffffffffffffffffffffffffffffff168152602001600182015481526020016002820154815260200160038201548152602001600482015481526020016005820160009054906101000a900460ff1615151515815260200160068201548152602001600782015481526020016008820154815250508383815181106148c657fe5b60200260200101819052505080806001019150506147c3565b5080915050919050565b6060600182141561498c57600860008473ffffffffffffffffffffffffffffffffffffffff1673ffffffffffffffffffffffffffffffffffffffff16815260200190815260200160002060000180548060200260200160405190810160405280929190818152602001828054801561498057602002820191906000526020600020905b81548152602001906001019080831161496c575b50505050509050614b70565b6002821415614a2d57600860008473ffffffffffffffffffffffffffffffffffffffff1673ffffffffffffffffffffffffffffffffffffffff168152602001908152602001600020600101805480602002602001604051908101604052809291908181526020018280548015614a2157602002820191906000526020600020905b815481526020019060010190808311614a0d575b50505050509050614b70565b6003821415614ace57600860008473ffffffffffffffffffffffffffffffffffffffff1673ffffffffffffffffffffffffffffffffffffffff168152602001908152602001600020600301805480602002602001604051908101604052809291908181526020018280548015614ac257602002820191906000526020600020905b815481526020019060010190808311614aae575b50505050509050614b70565b6004821415614b6f57600860008473ffffffffffffffffffffffffffffffffffffffff1673ffffffffffffffffffffffffffffffffffffffff168152602001908152602001600020600201805480602002602001604051908101604052809291908181526020018280548015614b6357602002820191906000526020600020905b815481526020019060010190808311614b4f575b50505050509050614b70565b5b92915050565b6005600085815260200190815260200160002060000160009054906101000a900473ffffffffffffffffffffffffffffffffffffffff1673ffffffffffffffffffffffffffffffffffffffff163373ffffffffffffffffffffffffffffffffffffffff1614614c1a576040517f08c379a0000000000000000000000000000000000000000000000000000000008152600401614c1190615c52565b60405180910390fd5b81600560008681526020019081526020016000206006018190555082600560008681526020019081526020016000206004018190555080600560008681526020019081526020016000206007018190555050505050565b60008081548092919060010191905055506000614c8d866105ee565b90506002600082815260200190815260200160002060000160005490806001815401808255809150509060018203906000526020600020016000909192909190915055506040518061012001604052803373ffffffffffffffffffffffffffffffffffffffff1681526020016000815260200182815260200186815260200186815260200160011515815260200185815260200184815260200142815250600560008054815260200190815260200160002060008201518160000160006101000a81548173ffffffffffffffffffffffffffffffffffffffff021916908373ffffffffffffffffffffffffffffffffffffffff1602179055506020820151816001015560408201518160020155606082015181600301556080820151816004015560a08201518160050160006101000a81548160ff02191690831515021790555060c0820151816006015560e082015181600701556101008201518160080155905050600660003373ffffffffffffffffffffffffffffffffffffffff1673ffffffffffffffffffffffffffffffffffffffff16815260200190815260200160002060000160005490806001815401808255809150509060018203906000526020600020016000909192909190915055503373ffffffffffffffffffffffffffffffffffffffff167f06d195a39cae44c0b031a2dc9a496102b4bd20ce290705703921389588231858600054604051614ea69190615c72565b60405180910390a26000547f6d97897343a1a8545b3799dc518f14c3e89c1761ef2a3280dccf03b0c5ec0f7383604051614ee09190615c30565b60405180910390a2505050505050565b600080600080905060008090505b8551811015614f4a57614f24868281518110614f1657fe5b602002602001015186614723565b15614f355760019350809250614f4a565b81806001019250508080600101915050614efe565b508451811415614f5c57600092508091505b509250929050565b604051806101200160405280600073ffffffffffffffffffffffffffffffffffffffff168152602001600081526020016000815260200160008152602001600081526020016000151581526020016000815260200160008152602001600081525090565b604051806101200160405280600073ffffffffffffffffffffffffffffffffffffffff168152602001600081526020016000815260200160008152602001600081526020016000151581526020016000815260200160008152602001600081525090565b60008135905061503b81615f29565b92915050565b600082601f83011261505257600080fd5b813561506561506082615cba565b615c8d565b9150818183526020840193506020810190508360005b838110156150ab578135860161509188826151a1565b84526020840193506020830192505060018101905061507b565b5050505092915050565b600082601f8301126150c657600080fd5b81356150d96150d482615ce2565b615c8d565b915081818352602084019350602081019050838560208402820111156150fe57600080fd5b60005b8381101561512e57816151148882615249565b845260208401935060208301925050600181019050615101565b5050505092915050565b60008151905061514781615f40565b92915050565b600082601f83011261515e57600080fd5b813561517161516c82615d0a565b615c8d565b9150808252602083016020830185838301111561518d57600080fd5b615198838284615ed6565b50505092915050565b600082601f8301126151b257600080fd5b81356151c56151c082615d36565b615c8d565b915080825260208301602083018583830111156151e157600080fd5b6151ec838284615ed6565b50505092915050565b600082601f83011261520657600080fd5b813561521961521482615d62565b615c8d565b9150808252602083016020830185838301111561523557600080fd5b615240838284615ed6565b50505092915050565b60008135905061525881615f57565b92915050565b60006020828403121561527057600080fd5b600061527e8482850161502c565b91505092915050565b6000806040838503121561529a57600080fd5b60006152a88582860161502c565b92505060206152b985828601615249565b9150509250929050565b600080604083850312156152d657600080fd5b600083013567ffffffffffffffff8111156152f057600080fd5b6152fc85828601615041565b925050602083013567ffffffffffffffff81111561531957600080fd5b615325858286016151f5565b9150509250929050565b60006020828403121561534157600080fd5b600082013567ffffffffffffffff81111561535b57600080fd5b615367848285016150b5565b91505092915050565b6000806040838503121561538357600080fd5b600083013567ffffffffffffffff81111561539d57600080fd5b6153a9858286016150b5565b92505060206153ba85828601615249565b9150509250929050565b6000602082840312156153d657600080fd5b60006153e484828501615138565b91505092915050565b6000602082840312156153ff57600080fd5b600082013567ffffffffffffffff81111561541957600080fd5b615425848285016151f5565b91505092915050565b6000806040838503121561544157600080fd5b600083013567ffffffffffffffff81111561545b57600080fd5b615467858286016151f5565b925050602083013567ffffffffffffffff81111561548457600080fd5b615490858286016151f5565b9150509250929050565b600080600080600060a086880312156154b257600080fd5b600086013567ffffffffffffffff8111156154cc57600080fd5b6154d8888289016151f5565b95505060206154e988828901615249565b94505060406154fa88828901615249565b935050606061550b88828901615249565b925050608086013567ffffffffffffffff81111561552857600080fd5b615534888289016151f5565b9150509295509295909350565b60006020828403121561555357600080fd5b600061556184828501615249565b91505092915050565b60008060006060848603121561557f57600080fd5b600061558d86828701615249565b935050602084013567ffffffffffffffff8111156155aa57600080fd5b6155b68682870161514d565b92505060406155c78682870161502c565b9150509250925092565b6000806000606084860312156155e657600080fd5b60006155f486828701615249565b935050602061560586828701615249565b92505060406156168682870161502c565b9150509250925092565b6000806000806080858703121561563657600080fd5b600061564487828801615249565b945050602061565587828801615249565b935050604061566687828801615249565b925050606085013567ffffffffffffffff81111561568357600080fd5b61568f878288016151f5565b91505092959194509250565b600080600080608085870312156156b157600080fd5b60006156bf87828801615249565b94505060206156d087828801615249565b93505060406156e187828801615249565b92505060606156f287828801615249565b91505092959194509250565b600061570a8383615961565b6101208301905092915050565b60006157238383615a18565b60208301905092915050565b61573881615ea0565b82525050565b61574781615e4e565b82525050565b61575681615e4e565b82525050565b600061576782615dae565b6157718185615dff565b935061577c83615d8e565b8060005b838110156157ad57815161579488826156fe565b975061579f83615de5565b925050600181019050615780565b5085935050505092915050565b60006157c582615db9565b6157cf8185615e10565b93506157da83615d9e565b8060005b8381101561580b5781516157f28882615717565b97506157fd83615df2565b9250506001810190506157de565b5085935050505092915050565b61582181615e60565b82525050565b61583081615e60565b82525050565b61583f81615e6c565b82525050565b600061585082615dc4565b61585a8185615e21565b935061586a818560208601615ee5565b61587381615f18565b840191505092915050565b600061588982615dda565b6158938185615e32565b93506158a3818560208601615ee5565b6158ac81615f18565b840191505092915050565b60006158c282615dda565b6158cc8185615e43565b93506158dc818560208601615ee5565b80840191505092915050565b60006158f382615dcf565b6158fd8185615e32565b935061590d818560208601615ee5565b61591681615f18565b840191505092915050565b600061592e601583615e32565b91507f796f7520617265206e6f7420746865206f776e657200000000000000000000006000830152602082019050919050565b61012082016000820151615978600085018261573e565b50602082015161598b6020850182615a18565b50604082015161599e6040850182615a18565b5060608201516159b16060850182615a18565b5060808201516159c46080850182615a18565b5060a08201516159d760a0850182615818565b5060c08201516159ea60c0850182615a18565b5060e08201516159fd60e0850182615a18565b50610100820151615a12610100850182615a18565b50505050565b615a2181615e96565b82525050565b615a3081615e96565b82525050565b6000615a4282846158b7565b915081905092915050565b6000608082019050615a62600083018761574d565b615a6f602083018661572f565b615a7c6040830185615a27565b615a896060830184615a27565b95945050505050565b6000608082019050615aa7600083018761574d565b615ab4602083018661574d565b8181036040830152615ac68185615845565b9050615ad56060830184615a27565b95945050505050565b600061012082019050615af4600083018c61574d565b615b01602083018b615a27565b615b0e604083018a615a27565b615b1b6060830189615a27565b615b286080830188615a27565b615b3560a0830187615827565b615b4260c0830186615a27565b615b4f60e0830185615a27565b615b5d610100830184615a27565b9a9950505050505050505050565b60006020820190508181036000830152615b85818461575c565b905092915050565b60006020820190508181036000830152615ba781846157ba565b905092915050565b6000602082019050615bc46000830184615827565b92915050565b6000604082019050615bdf6000830185615827565b615bec6020830184615a27565b9392505050565b6000602082019050615c086000830184615836565b92915050565b60006020820190508181036000830152615c2881846158e8565b905092915050565b60006020820190508181036000830152615c4a818461587e565b905092915050565b60006020820190508181036000830152615c6b81615921565b9050919050565b6000602082019050615c876000830184615a27565b92915050565b6000604051905081810181811067ffffffffffffffff82111715615cb057600080fd5b8060405250919050565b600067ffffffffffffffff821115615cd157600080fd5b602082029050602081019050919050565b600067ffffffffffffffff821115615cf957600080fd5b602082029050602081019050919050565b600067ffffffffffffffff821115615d2157600080fd5b601f19601f8301169050602081019050919050565b600067ffffffffffffffff821115615d4d57600080fd5b601f19601f8301169050602081019050919050565b600067ffffffffffffffff821115615d7957600080fd5b601f19601f8301169050602081019050919050565b6000819050602082019050919050565b6000819050602082019050919050565b600081519050919050565b600081519050919050565b600081519050919050565b600081519050919050565b600081519050919050565b6000602082019050919050565b6000602082019050919050565b600082825260208201905092915050565b600082825260208201905092915050565b600082825260208201905092915050565b600082825260208201905092915050565b600081905092915050565b6000615e5982615e76565b9050919050565b60008115159050919050565b6000819050919050565b600073ffffffffffffffffffffffffffffffffffffffff82169050919050565b6000819050919050565b6000615eab82615eb2565b9050919050565b6000615ebd82615ec4565b9050919050565b6000615ecf82615e76565b9050919050565b82818337600083830152505050565b60005b83811015615f03578082015181840152602081019050615ee8565b83811115615f12576000848401525b50505050565b6000601f19601f8301169050919050565b615f3281615e4e565b8114615f3d57600080fd5b50565b615f4981615e60565b8114615f5457600080fd5b50565b615f6081615e96565b8114615f6b57600080fd5b5056fea365627a7a723158205d187080a3cbc39de47bc8aeef7b4b56e6981485144d2edfc5980635587a5dbd6c6578706572696d656e74616cf564736f6c63430005100040",
  "source": "// SPDX-License-Identifier: MIT\npragma solidity >=0.4.22 <0.9.0;\npragma experimental ABIEncoderV2;\ncontract SupplyChain  {\n\n\nevent ProductLocation(uint indexed productId,  string location);\nevent ProductAdded(address indexed owner,uint  productId);\nevent ProductBuyed(address indexed owner,address indexed receiver,uint  productId);\nuint public finalID=1000; \nstring[] public productTypes=[\"Potatoes\",\"Tomatoes\",\"Strawberries\",\"Plums\",\"Peaches\",\"Eggplant\",\"Cucumber\",\"Figs\",\"Onions\",\"Apples\",\"Cherries\",\"Broccoli\",\"Grapes\",\"Kiwi\",\"Lemons\",\"Oranges\",\"Spinach\",\"Carrots\",\"Lettuce\",\"Apricots\"];\n\nmapping (uint => productListData)  farmersProductByType;\nmapping (uint => productListData)  wholesalersProductByType;\nmapping (uint => productListData)  retailersProductByType;\nmapping(uint => ProductData) public productsData ;\nmapping (address => farmersData)  farmers;\nmapping (address => wholeSalerRetailerData )  wholesalers;\nmapping (address => wholeSalerRetailerData)  retailers;\nmapping (address => customerData)  customers;\nmapping (address => string) public usersJobType;\nstruct customerData{\n\nuint[] toReceive;\n}\nstruct farmersData{   \nuint[] productForSale;\n\nuint[] toSend;\n}\nstruct wholeSalerRetailerData{ \nuint[] productForSale;\n\nuint[] stock;\nuint[] toReceive;\nuint[] toSend;\n}\nstruct productListData{\n   \nuint[] productList;\n}\nstruct ProductData {\naddress owner;\nuint parent;\nuint productType ;\nuint amount;\nuint amountRemaining;\nbool isForSale;\nuint price;\nuint minQuantity;\nuint date;\n\n\n\n}\n\n\n\n\nfunction getHash(string memory str) public pure returns (bytes32) {\n        return keccak256(abi.encodePacked(str));\n        \n    }\n\nfunction indexInListProduct(string memory productType) public view returns ( uint){\n        bool bol;\n        uint ind;\n        (bol,ind)= retreiveIndexString(productTypes,productType);\n        return ind;\n    }\n\n\n    function farmerConfirmSending(uint productId, bytes memory signature,address coinAddress) public { \n    \n    ProductData memory product= productsData[productId];\n    address wholeSalerOwner = product.owner;\n    \n    ProductData memory parentProduct= productsData[product.parent];\n    address farmerBuyer = parentProduct.owner;\n    MyCoin( coinAddress).transfertWithSignature(farmerBuyer,wholeSalerOwner,signature, productId);\n\n    bool bol;\n    uint ind;\n    bool bool2;\n    uint ind2;\n    (bol,ind)=retreiveIndex(farmers[farmerBuyer].toSend,productId);\n    (bool2,ind2)=retreiveIndex(wholesalers[wholeSalerOwner].toReceive,productId);\n    if (bol && bol){\n            farmers[farmerBuyer].toSend[ind]=farmers[farmerBuyer].toSend[farmers[farmerBuyer].toSend.length-1];\n            farmers[farmerBuyer].toSend.pop(); \n            wholesalers[wholeSalerOwner].toReceive[ind]=wholesalers[wholeSalerOwner].toReceive[wholesalers[wholeSalerOwner].toReceive.length-1];\n            wholesalers[wholeSalerOwner].toReceive.pop();\n            wholesalers[wholeSalerOwner].stock.push(productId);\n            emit ProductBuyed( msg.sender,product.owner,productId);  \n        }\n    \n    \n    }\n    function wholeSalerConfirmSending(uint productId, bytes memory signature,address coinAddress) public { \n    \n    ProductData memory product= productsData[productId];\n    address RetailerOwner = product.owner;\n    \n    ProductData memory parentProduct= productsData[product.parent];\n    address wholeSalerBuyer = parentProduct.owner;\n        MyCoin( coinAddress).transfertWithSignature(wholeSalerBuyer,RetailerOwner,signature, productId);\n\n    bool bol;\n    uint ind;\n    bool bool2;\n    uint ind2;\n    (bol,ind)=retreiveIndex(wholesalers[wholeSalerBuyer].toSend,productId);\n    (bool2,ind2)=retreiveIndex(retailers[RetailerOwner].toReceive,productId);\n    if (bol && bol){\n            wholesalers[wholeSalerBuyer].toSend[ind]=wholesalers[wholeSalerBuyer].toSend[wholesalers[wholeSalerBuyer].toSend.length-1];\n            wholesalers[wholeSalerBuyer].toSend.pop(); \n            retailers[RetailerOwner].toReceive[ind]=retailers[RetailerOwner].toReceive[retailers[RetailerOwner].toReceive.length-1];\n            retailers[RetailerOwner].toReceive.pop();\n            retailers[RetailerOwner].stock.push(productId); \n            emit ProductBuyed( msg.sender,product.owner,productId);\n        }\n         \n\n    }\n    function retailerConfirmSending(uint productId, bytes memory signature,address  coinAddress) public { \n        \n    ProductData memory product= productsData[productId];\n    address customerOwner = product.owner;\n    \n    ProductData memory parentProduct= productsData[product.parent];\n    address retailerBuyer = parentProduct.owner;\n    MyCoin( coinAddress).transfertWithSignature(retailerBuyer,customerOwner,signature, productId);\n    bool bol;\n    uint ind;\n    bool bool2;\n    uint ind2;\n    (bol,ind)=retreiveIndex(retailers[retailerBuyer].toSend,productId);\n    (bool2,ind2)=retreiveIndex(customers[customerOwner].toReceive,productId);\n    if (bol && bol){\n            retailers[retailerBuyer].toSend[ind]=retailers[retailerBuyer].toSend[retailers[retailerBuyer].toSend.length-1];\n            retailers[retailerBuyer].toSend.pop(); \n            customers[customerOwner].toReceive[ind]=customers[customerOwner].toReceive[customers[customerOwner].toReceive.length-1];\n            customers[customerOwner].toReceive.pop();\n            emit ProductBuyed( msg.sender,product.owner,productId); \n        }\n     \n\n    }\n    function buyProductWholesaler(uint productId,uint amount,address  coinAddress) public {\n        finalID++; \n        ProductData memory parentProduct= productsData[productId];\n        MyCoin(coinAddress).blockAmount(parentProduct.owner,msg.sender,finalID ,amount*parentProduct.price);\n        \n       \n        productsData[productId].amountRemaining-=amount;\n        uint parent =productId;\n        productsData[finalID]=ProductData({owner:msg.sender,parent:parent ,productType:parentProduct.productType,amount:amount,amountRemaining:amount,isForSale:false,price:0,minQuantity:0,date:block.timestamp});\n       // wholesalers[msg.sender].stock.push(finalID);\n        wholesalers[msg.sender].toReceive.push(finalID);\n        farmers[parentProduct.owner].toSend.push(finalID);\n         if (productsData[productId].minQuantity >productsData[productId].amountRemaining ){\n          productsData[productId].minQuantity =productsData[productId].amountRemaining;\n        }\n        if (productsData[productId].amountRemaining==0){\n            bool bol;\n            uint ind;\n            bool bool2;\n            uint ind2;\n            (bol,ind)=retreiveIndex(farmers[productsData[productId].owner].productForSale,productId);\n            (bool2,ind2)=retreiveIndex(farmersProductByType[productsData[productId].productType].productList,productId);\n        if (bol){\n            farmers[productsData[productId].owner].productForSale[ind]=farmers[productsData[productId].owner].productForSale[farmers[productsData[productId].owner].productForSale.length-1];\n            farmers[productsData[productId].owner].productForSale.pop();\n            \n        }\n         if (bool2){\n            farmersProductByType[productsData[productId].productType].productList[ind2]=farmersProductByType[productsData[productId].productType].productList[farmersProductByType[productsData[productId].productType].productList.length-1];\n             farmersProductByType[productsData[productId].productType].productList.pop();  \n         }\n        }    \n       \n    }\n    function buyProductRetailer(uint productId,uint amount,address  coinAddress) public {\n        finalID++;\n        ProductData memory parentProduct= productsData[productId];\n        MyCoin(coinAddress).blockAmount(parentProduct.owner,msg.sender,finalID ,amount*parentProduct.price);\n\n        productsData[productId].amountRemaining-=amount;\n        uint parent =productId;\n        productsData[finalID]=ProductData({owner:msg.sender,parent:parent ,productType:parentProduct.productType,amount:amount,amountRemaining:amount,isForSale:false,price:0,minQuantity:0,date:block.timestamp});\n        //retailers[msg.sender].stock.push(finalID);\n        retailers[msg.sender].toReceive.push(finalID);\n        wholesalers[parentProduct.owner].toSend.push(finalID);\n         if (productsData[productId].minQuantity >productsData[productId].amountRemaining ){\nproductsData[productId].minQuantity =productsData[productId].amountRemaining;\n        }\n        if (productsData[productId].amountRemaining==0){\n            bool bol;\n            uint ind;\n            bool bool2;\n            uint ind2;\n            (bol,ind)=retreiveIndex(wholesalers[productsData[productId].owner].productForSale,productId);\n            (bool2,ind2)=retreiveIndex(wholesalersProductByType[productsData[productId].productType].productList,productId);\n        if (bol){\n            wholesalers[productsData[productId].owner].productForSale[ind]=wholesalers[productsData[productId].owner].productForSale[wholesalers[productsData[productId].owner].productForSale.length-1];\n            wholesalers[productsData[productId].owner].productForSale.pop();\n            \n        }\n         if (bool2){\n            wholesalersProductByType[productsData[productId].productType].productList[ind2]=wholesalersProductByType[productsData[productId].productType].productList[wholesalersProductByType[productsData[productId].productType].productList.length-1];\n             wholesalersProductByType[productsData[productId].productType].productList.pop();  \n         }\n        }  \n        \n    }\n function buyProductCustomers(uint productId,uint amount,address  coinAddress) public {\n        finalID++;\n        ProductData memory parentProduct= productsData[productId];\n        MyCoin(coinAddress).blockAmount(parentProduct.owner,msg.sender,finalID ,amount*parentProduct.price);\n\n        productsData[productId].amountRemaining-=amount;\n        uint parent =productId;\n        productsData[finalID]=ProductData({owner:msg.sender,parent:parent ,productType:parentProduct.productType,amount:amount,amountRemaining:amount,isForSale:false,price:0,minQuantity:0,date:block.timestamp});\n        //customers[msg.sender].history.push(finalID);\n        customers[msg.sender].toReceive.push(finalID);\n        retailers[parentProduct.owner].toSend.push(finalID);\n        if (productsData[productId].minQuantity >productsData[productId].amountRemaining ){\nproductsData[productId].minQuantity =productsData[productId].amountRemaining;\n        }\n        if (productsData[productId].amountRemaining==0){\n            bool bol;\n            uint ind;\n            bool bool2;\n            uint ind2;\n            (bol,ind)=retreiveIndex(retailers[productsData[productId].owner].productForSale,productId);\n            (bool2,ind2)=retreiveIndex(retailersProductByType[productsData[productId].productType].productList,productId);\n        if (bol){\n            retailers[productsData[productId].owner].productForSale[ind]=retailers[productsData[productId].owner].productForSale[retailers[productsData[productId].owner].productForSale.length-1];\n            retailers[productsData[productId].owner].productForSale.pop();\n            \n        }\n         if (bool2){\n            retailersProductByType[productsData[productId].productType].productList[ind2]=retailersProductByType[productsData[productId].productType].productList[retailersProductByType[productsData[productId].productType].productList.length-1];\n             retailersProductByType[productsData[productId].productType].productList.pop();  \n         }\n        }   \n        \n    }\n    function farmersProductsListe(string memory pproductType) public view returns ( uint[] memory){\n        uint ind =indexInListProduct(pproductType);\n        return farmersProductByType[ind].productList;\n    }\n    function wholesalersProductsListe(string memory pproductType) public view returns ( uint[] memory){\n        uint ind =indexInListProduct(pproductType);\n        return wholesalersProductByType[ind].productList;\n    }\n    function retailersProductsListe(string memory pproductType) public view returns ( uint[] memory){\n        uint ind =indexInListProduct(pproductType);\n        return retailersProductByType[ind].productList;\n    }\n\n    function farmersProductsPersonal(address theFarmer,uint listType) public view returns ( uint[] memory){\n        if(listType==1) {return farmers[theFarmer].productForSale;}\n        else if(listType==3) {return farmers[theFarmer].toSend;}\n        \n        \n    }\n\n    function wholeSalerProductsPersonal(address wholeSaerAddr,uint listType) public view returns ( uint[] memory){\n         if(listType==1) {return wholesalers[wholeSaerAddr].productForSale;}\n        else if(listType==2) {return wholesalers[wholeSaerAddr].stock;}\n        else if(listType==3) {return wholesalers[wholeSaerAddr].toSend;}\n        else if(listType==4) {return wholesalers[wholeSaerAddr].toReceive;}\n        \n        \n    }\n\n    function retailerProductsPersonal(address retailerAddr,uint listType) public view returns ( uint[] memory){\n         if(listType==1) {return retailers[retailerAddr].productForSale;}\n        else if(listType==2) {return retailers[retailerAddr].stock;}\n        else if(listType==3) {return retailers[retailerAddr].toSend;}\n        else if(listType==4) {return retailers[retailerAddr].toReceive;}\n        \n        \n    }\n    function customerProductsPersonal(address theCustomer,uint listType) public view returns ( uint[] memory){\n        \n        \n    if(listType==4) {return customers[theCustomer].toReceive;}\n            \n    }\n    \n    \n   function modifyProduct(uint productId,uint amount,uint price,uint minQuantity)public {\n        \n         require(msg.sender==productsData[productId].owner,\"you are not the owner\");\n         productsData[productId].price = price;\n         productsData[productId].amountRemaining = amount;\n         productsData[productId].minQuantity = minQuantity;\n        \n        \n    }\n    \n    function farmerAddProduct(string memory pproductType,uint amount,uint price,uint minQuantity,string memory location)public {\n        finalID++;\n        uint ind =indexInListProduct(pproductType);\n        farmersProductByType[ind].productList.push(finalID);\n        \n        \n\n        \n        productsData[finalID]=ProductData({owner:msg.sender,parent: 0,productType:ind,amount:amount,amountRemaining:amount,isForSale:true,price:price,minQuantity:minQuantity,date:block.timestamp});\n        farmers[msg.sender].productForSale.push(finalID);\n        emit ProductAdded(msg.sender ,finalID);\n        emit  ProductLocation(finalID, location);\n        \n    }\n   \n    \n    \n   \n   \n     function wholeSalerFromStockToSale(uint productId,uint price,uint minQuantity,string memory _location)public {\n        bool bol;\n        uint ind;\n        productsData[productId].price = price;\n        emit  ProductLocation(productId, _location);\n        \n        productsData[productId].isForSale= true;\n        productsData[productId].minQuantity = minQuantity;\n        (bol,ind)=retreiveIndex(wholesalers[msg.sender].stock,productId);\n        if (bol){\n            wholesalers[msg.sender].stock[ind]=wholesalers[msg.sender].stock[wholesalers[msg.sender].stock.length-1];\n            wholesalers[msg.sender].stock.pop();\n            wholesalers[msg.sender].productForSale.push(productId);\n            wholesalersProductByType[productsData[productId].productType].productList.push(productId);\n        }\n        emit ProductAdded(msg.sender,productId);\n    }\n    function retailerFromStockToSale(uint productId,uint price,uint minQuantity,string memory _location)public {\n        bool bol;\n        uint ind;\n        productsData[productId].price = price;\n        emit  ProductLocation(productId, _location);\n        \n        productsData[productId].isForSale= true;\n        productsData[productId].minQuantity = minQuantity;\n        (bol,ind)=retreiveIndex(retailers[msg.sender].stock,productId);\n        if (bol){\n            retailers[msg.sender].stock[ind]=retailers[msg.sender].stock[retailers[msg.sender].stock.length-1];\n            retailers[msg.sender].stock.pop();\n            retailers[msg.sender].productForSale.push(productId);\n            retailersProductByType[productsData[productId].productType].productList.push(productId);\n        }\n\n        emit ProductAdded(msg.sender,productId);\n    }\n    function retreiveIndex(uint[] memory list,uint value) public pure returns(bool b,uint u){\n        uint j=0;\n    for (uint i = 0; i < list.length; i++) {\n        if (list[i]==value){\n            b=true;\n            u=i;\n            break;\n        }  \n        j++;\n    }\n    if (j==list.length){\n        b=false;\n            u=j;\n    }\n    }\n    function compareStrings(string memory a, string memory b) public pure returns (bool) {\n    return (keccak256(abi.encodePacked((a))) == keccak256(abi.encodePacked((b))));\n}\n    function retreiveIndexString(string[] memory list,string memory value) public pure returns(bool b,uint u){\n        uint j=0;\n    for (uint i = 0; i < list.length; i++) {\n        if (compareStrings(list[i],value)){\n            b=true;\n            u=i;\n            break;\n        }  \n        j++;\n    }\n    if (j==list.length){\n        b=false;\n            u=j;\n    }\n    }\n    function productDatafromList( uint[] memory _productsId) public view returns ( ProductData[] memory){\n        ProductData[] memory productssData = new  ProductData[](_productsId.length);\n        for (uint i = 0; i < _productsId.length; i++) {\n            \n            ProductData storage productProgress = productsData[_productsId[i]];\n            productssData[i] = productProgress;\n    }\n    return productssData;\n    } \n    \n}\n\ncontract MyCoin  {\nmapping(address => uint) public balanceOf;\nmapping(address=>toSend) public balanceToSend;\nmapping(address=>toReceive) public balanceToReceive;\naddress public owner;\nstruct toSend{\nmapping (string => uint) keyAmount;\nuint total;\n}\nstruct toReceive{\nmapping (string => uint) keyAmount;\nuint total;\n}\n\nconstructor () public {\nowner=msg.sender;\n\n}\n\nfunction toString(uint256 value) internal pure returns (string memory) {\n        // Inspired by OraclizeAPI's implementation - MIT licence\n        // https://github.com/oraclize/ethereum-api/blob/b42146b063c7d6ee1358846c198246239e9360e8/oraclizeAPI_0.4.25.sol\n        if (value == 0) {\n            return \"0\";\n        }\n        uint256 temp = value;\n        uint256 digits;\n        while (temp != 0) {\n            digits++;\n            temp /= 10;\n        }\n        bytes memory buffer = new bytes(digits);\n        while (value != 0) {\n            digits -= 1;\n            buffer[digits] = bytes1(uint8(48 + uint256(value % 10)));\n            value /= 10;\n        }\n        return string(buffer);\n    }\n    function getHash(string memory str) public pure returns (bytes32) {\n        return keccak256(abi.encodePacked(str));\n        \n    } \n    function getEthSignedHash(bytes32 _messageHash) public pure returns (bytes32) {\n        return keccak256(abi.encodePacked(\"\\x19Ethereum Signed Message:\\n32\", _messageHash));\n    }\n    function verify(bytes32 _ethSignedMessageHash, bytes memory _signature) public pure returns (address) {\n        (bytes32 r, bytes32 s, uint8 v) = splitSignature(_signature);\n        return ecrecover(_ethSignedMessageHash, v, r, s);\n    }\n    function splitSignature(bytes memory sig) internal pure returns ( bytes32, bytes32,uint8)\n    {\n    require(sig.length == 65);\n    bytes32 r;\n    bytes32 s;\n    uint8 v;\n    assembly {\n        \n        r := mload(add(sig, 32))\n        s := mload(add(sig, 64))\n        v := byte(0, mload(add(sig, 96)))\n    }\n    return (r, s, v);\n    }\n\nfunction transfert(address receiver,uint amount) public returns(bool){\n    balanceOf[msg.sender]-=amount;\n    balanceOf[receiver]+=amount;\n    return true;\n}\n\nfunction mint(address receiver,uint amount) public {\n    require(owner==msg.sender,\"you are not the owner\");\n    balanceOf[ receiver]+=amount;\n}\n\n\n\nfunction transfertWithSignature(address receiver,address sender,bytes memory _signature,uint productId) public returns(bool){\n    bytes32 hash = getHash(toString(productId));\n    bytes32 ethSignHash = getEthSignedHash(hash);\n    address signerAddress = verify(ethSignHash, _signature);\n    //ProductData memory product= productsData[productId];\n    //address wholeSalerOwner = product.owner;\n   // require(signerAddress==wholeSalerOwner, \"invalide signature\");\n    require(signerAddress== sender,\"signer are not the sender in input\");\n    balanceOf[receiver]+=balanceToReceive[receiver].keyAmount[toString(productId)];\n    balanceToReceive[receiver].total-=balanceToReceive[receiver].keyAmount[toString(productId)];\n    balanceToReceive[receiver].keyAmount[toString(productId)]=0;\n    balanceToSend[sender].total-=balanceToSend[sender].keyAmount[toString(productId)];\n    balanceToSend[sender].keyAmount[toString(productId)]=0;\n    \n    return true;\n}\n\nfunction blockAmount(address receiver,address sender,uint productId ,uint amount) public {\nrequire(balanceOf[sender]>= amount,\"you dont have money\");\nbalanceOf[sender]-=amount;\nbalanceToReceive[receiver].total+=amount;\nbalanceToReceive[receiver].keyAmount[toString(productId)]=amount;\nbalanceToSend[sender].keyAmount[toString(productId)]=amount;\nbalanceToSend[sender].total+=amount;\n\n}\n\nfunction balance(address retailerAddr) public view returns ( uint ){\n        return balanceOf[retailerAddr];\n    }\n    function balanceToReceiveBlocked(address retailerAddr) public view returns ( uint){\n        return balanceToReceive[retailerAddr].total ;\n    }\n    function balanceToSendBlocked(address retailerAddr) public view returns ( uint){\n        return balanceToSend[retailerAddr].total ;\n    }\n\n}",
  "sourcePath": "/home/mrbnf/Documents/myapp/SupplyChain/supplychain/contracts/SupplyChain.sol",
  "compiler": {
    "name": "solc",
    "version": "0.5.16+commit.9c3226ce.Emscripten.clang"
  },
  "schemaVersion": "3.4.7",
  "updatedAt": "2022-07-02T22:34:43.235Z",
  "networkType": "ethereum",
  "devdoc": {
    "methods": {}
  },
  "userdoc": {
    "methods": {}
  }
}